:1003370000180808080808181F000E11110E001FE2
:1003470000030202020202030A0908004E54555331
:1003570054206973207468652062657374200049AE
:100367004E54302068617070656E73202020202005
:100377002000494E54312068617070656E732020EB
:050387002020202000F1
:0400060002220001D1
:10038C0075880575A885D2B812041E12044DE4F5C3
:10039C0024F5257BFF7A037953120553C3E5259F7A
:1003AC00E5249E50E97F0112050E1204CB7BFF7AE7
:1003BC0003795385253C7F8012027B7FF47E0112EA
:0C03CC0004CF0525E52570CB052480C773
:03000300020016E2
:10001600C0E0C0F0C083C082C0D075D000C000C0B0
:1000260001C002C003C004C005C006C007751C009D
:10003600751D007BFF7A037966120553EF24FFFFD7
:10004600EE34FFFEC3E5099FE5089E4006750800ED
:1000560075090085081E85091F7BFF7A03796612DC
:100066000553C3E51F9FE51E9E50467F0112050EF0
:100076001204CB7BFF7A037966851F3C7F801202D0
:100086007B7FF47E011204CFC3E51D9404E51C6456
:10009600809480500A051DE51D700C051C8008859E
:1000A6001E08851F09800A051FE51F70AC051E8006
:1000B600A8D007D006D005D004D003D002D001D0F6
:0C00C60000D0D0D082D083D0F0D0E03247
:030013000200D216
:1000D200C0E0C0F0C083C082C0D075D000C000C0F4
:1000E20001C002C003C004C005C006C007751C00E1
:1000F200751D007BFF7A037979120553EF24FFFF08
:10010200EE34FFFEC3E50B9FE50A9E4006750A002A
:10011200750B00850A20850B217BFF7A0379791202
:100122000553C3E51F9FE51E9E50467F0112050E33
:100132001204CB7BFF7A03797985213C7F801202FE
:100142007B7FF47E011204CFC3E51D9404E51C6499
:10015200809480500A051DE51D700C051C800885E1
:10016200200A85210B800A0521E52170AC0520803B
:10017200A8D007D006D005D004D003D002D001D039
:0C01820000D0D0D082D083D0F0D0E0328A
:06027B008B398A3A893B31
:100281008B3E8A3F8940E53CFD3395E0FCED253B03
:10029100F53BEC353AF53A12053EAB39AA3AA93BA2
:1002A1001203D86013053BE53B7002053A14F912BD
:1002B10003D8FF1204F980E2E4F53DC3E53C648014
:1002C100F8E53D648098500FAB3EAA3FA940AF3D91
:0702D1001204ED053D80E47D
:0102D8002203
:0602D9008B428A438944B8
:1002DF008B478A488949E545FD3395E0FCED254478
:1002EF00F544EC3543F54312053EAB42AA43A9440E
:1002FF001203D860130544E5447002054314F91244
:10030F0003D8FF1204F980E2E4F546C3E5456480A3
:10031F00F8E546648098500FAB47AA48A949AF4605
:07032F001204ED054680E415
:0103360022A4
:06021A008B4B8A4C894D5C
:100220008B508A51895212053EAF4EEF3395E0FE56
:10023000EF254DF54DEE354CF54CAB4BAA4CA94D89
:100240001203D86013054DE54D7002054C14F912E8
:1002500003D8FF1204F980E2E4F54FC37414954EFD
:10026000C36480F8E54F648098500FAB50AA51A941
:0A02700052AF4F1204ED054F80E17C
:01027A002261
:100478008B578A58895912053EAB57AA58A9591261
:1004880003D860130559E5597002055814F9120389
:08049800D8FF1204F980E222F2
:10053E008FA0C290C291D292E4FF0FBF28FCC2904E
:04054E00C291C29202
:010552002286
:0C04ED00EF3395E08F82F5831203F1FFDE
:1004F9008FA0D290C291D292E4FF0FBF28FCD29074
:04050900C291C29247
:01050D0022CB
:10041E007F1E7E001204CF7F3812050E7F38120524
:10042E000E7F3812050E7F3812050E7F0812050E4C
:0F043E007F0112050E7F0612050E7F0C02050EC0
:10044D007F4012050EE4F538AF38EF3395E0FE74BA
:10045D00372FF58274033EF583E493FF12052605CD
:0A046D0038C3E5386480949840DE3F
:010477002262
:0F0568001FED1DEF75F040A42D2480FF02050E3E
:10050E008F39C2901204C7D2928539A01204CBC281
:08051E00927F087E000204CF69
:0604A0008B538A548955BC
:1004A600E4F556AB53AA54A955AF56EF3395E08FF2
:1004B60082F5831203F1FF6007120526055680E3D5
:0104C6002213
:100526008F39D2901204C7D2928539A01204CBC259
:08053600927F017E000204CF58
:0804C700C291C2927F017E0088
:1004CF00D3EF9400EE940040147D787C00ED1D7006
:0D04DF00011CED4C70F7EF1F70E61E80E36E
:0104EC0022ED
:0300000002018E6C
:0C018E00787FE4F6D8FD7581590201D598
:1003D800BB010689828A83E0225002E722BBFE0223
:0903E800E32289828A83E4932256
:1003F100BB010CE58229F582E5833AF583E02250C1
:1004010006E92582F8E622BBFE06E92582F8E2220A
:0D041100E58229F582E5833AF583E4932224
:10055300E4FFFE1203D8600C0FEF70010E09E9707F
:05056300F20A80EF2206
:10019A0002038CE493A3F8E493A34003F68001F2EC
:1001AA0008DFF48029E493A3F85407240CC8C33366
:1001BA00C4540F4420C8834004F456800146F6DF35
:1001CA00E4800B0102040810204080900006E47EBF
:1001DA00019360BCA3FF543F30E509541FFEE4932A
:1001EA00A360010ECF54C025E060A840B8E493A3F1
:1001FA00FAE493A3F8E493A3C8C582C8CAC583CA1C
:10020A00F0A3C8C582C8CAC583CADFE9DEE780BED3
:01000A0000F5
:00000001FF
