:100F48002000412E442E0059004D004400412E4DF2
:090F58002E00502E4D2E003A002F
:100DF400120E7F120EAE120EDC120003120D95BFFE
:100E04000303120003120CF61207BD120A4BAE2D97
:100E1400AF2E7C007D0A120C59E52C2FFFE52B3EEA
:100E24004F7005F52B752C01AE1DAF1E7C007D0A9D
:100E3400120C59E51C2FFFE51B3E4F7005F51B7581
:0B0E44001C017FE87E03120F2A80B122
:10000300753500753601753700753801120D958FFA
:1000130014E514B4040A0536E536703B053580371C
:10002300E514B4060AE5361536702C15358028D349
:10003300E536940EE5356480948040087535007587
:1000430036018013C3E5369401E53564809480500E
:100053000675350075360EE5366401453570547BFB
:10006300FF7A0F79487FCF120E57E514B4011E05AE
:100073000FE50F7002050ED39409E50E648094809A
:10008300500302055BE4F50EF50F02055BE514640E
:1000930009600302055BE50F150F7002150EC3E53A
:1000A3000E64809480400302055B750E00750F0992
:1000B30002055BE5366402453570547BFF7A0F79A0
:1000C300487FCE120E57E514B4011E0511E51170D9
:1000D300020510D39405E510648094805003020553
:1000E3005BE4F510F51102055BE514640960030296
:1000F300055BE511151170021510C3E510648094BA
:1001030080400302055B75100075110502055BE570
:10011300366403453570547BFF7A0F79487FCC12E0
:100123000E57E514B4011E0516E51670020515D326
:100133009409E51564809480500302055BE4F5158A
:10014300F51602055BE5146409600302055BE51619
:10015300151670021515C3E51564809480400302DB
:10016300055B75150075160902055BE536640445E4
:100173003570547BFF7A0F79487FCB120E57E51405
:10018300B4011E0518E51870020517D39405E51789
:1001930064809480500302055BE4F517F5180205AB
:1001A3005BE5146409600302055BE518151870022A
:1001B3001517C3E51764809480400302055B751728
:1001C3000075180502055BE5366405453570707BDF
:1001D300FF7A0F79487FC9120E57E514B4013A0527
:1001E30030E5307002052FE532640245317012D3D9
:1001F300E5309403E52F64809480500302055B800F
:1002030010D3E5309409E52F6480948050030205F0
:100213005BE4F52FF53002055BE514640960030226
:10022300055BE53015307002152FC3E52F6480940C
:1002330080400302055B752F0075300902055BE5FD
:10024300366406453570547BFF7A0F79487FC812B0
:100253000E57E514B4011E0532E53270020531D3A1
:100263009402E53164809480500302055BE4F53128
:10027300F53202055BE5146409600302055BE532B0
:10028300153270021531C3E5316480948040030256
:10029300055B75310075320202055BE5366407457F
:1002A3003570517BFF7A0F79487F8E120E57E51414
:1002B300B40118052CE52C7002052BD39409E52B0A
:1002C30064809480500302055B8021E51464096017
:1002D3000302055BE52C152C7002152BC3E52C944A
:1002E30001E52B64809480400302055BE4F52BF564
:1002F3002C02055BE53664084535704C120E4FE55C
:1003030014B4011E052EE52E7002052DD39403E5CA
:100313002D64809480500302055BE4F52DF52E02D5
:10032300055BE5146409600302055BE52E152E7079
:1003330002152DC3E52D64809480400302055B758F
:100343002D00752E0302055BE536640945357055AE
:100353007BFF7A0F79487F8B120E57E514B4011F88
:10036300051CE51C7002051BD39409E51B648094EE
:1003730080500302055B751B00751C0102055BE5DC
:10038300146409600302055BE51C151C7002151B50
:10039300C3E51B64809480400302055B751B0075F5
:1003A3001C0902055BE536640A453570547BFF7A08
:1003B3000F79487F8A120E57E514B4011E051EE516
:1003C3001E7002051DD39401E51D648094805003C3
:1003D30002055BE4F51DF51E02055BE51464096087
:1003E3000302055BE51E151E7002151DC3E51D64A2
:1003F300809480400302055B751D00751E01020594
:100403005BE536640B453570547BFF7A0F79487F83
:1004130088120E57E514B4011E0520E5207002056D
:100423001FD39409E51F64809480500302055BE4A5
:10043300F51FF52002055BE5146409600302055B03
:10044300E52015207002151FC3E51F6480948040CA
:100453000302055B751F0075200902055BE5366421
:100463000C453570547BFF7A0F79487F87120E57FE
:10047300E514B4011E0522E52270020521D3940977
:10048300E52164809480500302055BE4F521F522A5
:1004930002055BE5146409600302055BE52215228E
:1004A30070021521C3E52164809480400302055B3B
:1004B30075210075220902055BE536640D4535702B
:1004C300497BFF7A0F79487F86120E57E514B401F2
:1004D3001A0524E52470020523D39409E5236480D7
:1004E30094804074E4F523F524806DE51464097069
:1004F30067E524152470021523C3E52364809480E3
:100503005056752300752409804EE536640E453533
:1005130070467BFF7A0F79487F85120E57E514B436
:10052300011A0526E52670020525D39409E52564FD
:100533008094804023E4F525F526801CE514B40956
:1005430017E526152670021525C3E52564809480DA
:100553005006752500752609AE2DAF2E7C007D0A49
:10056300120C59E52C2FF528E52B3EF527AE1DAFD0
:100573001E120C59E51C2FF534E51B3EF533AE2353
:10058300AF247D64120C59AA06AB07AE25AF267CB7
:10059300037DE8120C59EF2BFBEE3AFAAE21AF22A2
:1005A3007C007D0A120C59EF2BFFEE3AFEE5202F5B
:1005B300F52AE51F3EF529AE31AF32120C59E5306D
:1005C3002FFFE52F3EFED3EF9417EE648094804017
:1005D3000C753100753202752F00753003AE2DAFE7
:1005E3002E7C007D0A120C59E52C2FFFE52B3EFED5
:1005F300D3EF941FEE64809480400C752D00752E0C
:1006030003752B00752C01AE1DAF1E7C007D0A12F5
:100613000C59E51C2FFFE51B3EFED3EF940CEE6453
:10062300809480400C751D00751E01751B00751CA0
:10063300027FC87E00120F2A12091B7FC87E001298
:0D0643000F2A120D95EF6407600302000FEF
:010650002287
:1007BD007BFF7A0F794A7F80120E57AD26AC257FCD
:1007CD0085120F67AD24AC237F86120F67AD22AC67
:1007DD00217F87120F67AD20AC1F7F88120F677BBB
:1007ED00FF7A0F794F7F89120E57AD1EAC1D7F8A90
:1007FD00120F67AD1CAC1B7F8B120F677BFF7A0F3F
:10080D0079517F8C120E57AD2EAC2D7F8D120F6747
:10081D00AD2CAC2B7F8E120F677BFF7A0F79537F38
:10082D008F120E57AE23AF247C007D64120C59AA93
:10083D0006AB07AE25AF267C037DE8120C59EF2BD6
:10084D00FBEE3AFAAE21AF227C007D0A120C59EF75
:10085D002BFFEE3AFE7C037DE8120C6BEF4E700B16
:10086D007BFF7A0F79487F85120E57AE23AF247C1C
:10087D00007D64120C59AA06AB07AE25AF267C038A
:10088D007DE8120C59EF2BFBEE3AFAAE21AF227C2C
:10089D00007D0A120C59EF2BFFEE3AFE7D64120C0F
:1008AD006BEF4E700B7BFF7A0F79487F86120E57D8
:1008BD00AE23AF247C007D64120C59AA06AB07AEA3
:1008CD0025AF267C037DE8120C59EF2BFBEE3AFA8F
:1008DD00AE21AF227C007D0A120C59EF2BFFEE3AB0
:1008ED00FE120C6BEF4E700B7BFF7A0F79487F87F2
:1008FD00120E57E51E451D700B7BFF7A0F79487F51
:0E090D008A120E57E52E452D7003120E4F2252
:100A4B00AE31AF327C007D0A120C59E5302FFFE539
:100A5B002F3E4F701D7BFF7A0F79557FC0120E57BB
:100A6B007D017C007FC8120F677D027C007FC9125D
:100A7B000F67AE31AF327C007D0A120C59E5302F77
:100A8B00FFE52F3EFEC3EF940CEE64809480502163
:100A9B00EF9400EE6480948040177BFF7A0F7955BA
:100AAB007FC0120E57120F61AD30AC2F7FC9120FE2
:100ABB0067AE31AF327C007D0A120C59E5302FFF47
:100ACB00E52F3EFEEF640C4E70177BFF7A0F795AC1
:100ADB007FC0120E57120F61AD30AC2F7FC9120FB2
:100AEB0067AE31AF327C007D0A120C59E5302FFF17
:100AFB00E52F3EFED3EF940CEE6480948040297B6F
:100B0B00FF7A0F795A7FC0120E57E53224FFFDE5AD
:100B1B003134FFFC7FC8120F67E53024FEFDE52F53
:100B2B0034FFFC7FC9120F677BFF7A0F795F7FCA97
:100B3B00120E57AD18AC177FCB120F67AD16AC1555
:100B4B007FCC120F677BFF7A0F795F7FCD120E5729
:100B5B00AD11AC107FCE120F67AD0FAC0E7FCF0275
:020B6B000F6712
:10091B007BFF7A0F794A7F80120E57AD26AC257F6D
:10092B0085120F67AD24AC237F86120F67AD22AC07
:10093B00217F87120F67AD20AC1F7F88120F677B5B
:10094B00FF7A0F794F7F89120E57AD1EAC1D7F8A30
:10095B00120F67AD1CAC1B7F8B120F677BFF7A0FDF
:10096B0079517F8C120E57AD2EAC2D7F8D120F67E8
:10097B00AD2CAC2B7F8E120F677BFF7A0F79537FD9
:10098B008F120E57AE31AF327C007D0A120C59E537
:10099B00302FFFE52F3EFEC3EF940CEE6480948066
:1009AB00500B7BFF7A0F79557FC0120E57AE31AFCC
:1009BB00327C007D0A120C59E5302FFFE52F3EFEED
:1009CB00EF640C4E700B7BFF7A0F795A7FC0120EBF
:1009DB0057AE31AF327C007D0A120C59E5302FFF38
:1009EB00E52F3EFED3EF940CEE64809480400B7B9E
:1009FB00FF7A0F795A7FC0120E57120F61AD30ACD0
:100A0B002F7FC9120F677BFF7A0F795F7FCA120E98
:100A1B0057AD18AC177FCB120F67AD16AC157FCC4B
:100A2B00120F677BFF7A0F795F7FCD120E57AD11D7
:100A3B00AC107FCE120F67AD0FAC0E7FCF020F67DE
:100EAE00750C00750D01752B00752C08E4F52DF5EC
:100EBE002EF51B751C01F51DF51EF51F752008F589
:0E0ECE0021752201F523F524F5257526022253
:100EDC00750E00750F0875100075110575150075E8
:100EEC001609751700751805752F007530027531C8
:0A0EFC0000753201E4F508F5092243
:100CF600050FE50F7002050ED39409E50E64809486
:100D0600805003020D94E4F50EF50F0511E5117000
:100D1600020510D39405E510648094804070E4F5D4
:100D260010F5110516E51670020515D39409E5159B
:100D3600648094804058E4F515F5160518E518709A
:100D4600020517D39405E517648094804040E4F5C6
:100D560017F5180530E5307002052F6404452F702D
:100D660013E53264024531700BF531F532F52FF596
:100D760030020651D3E5309409E52F648094804013
:0F0D86000DE4F52FF5300532E53270020531220C
:10065100120B6DE50D2401FFE4350CFE7C007D07D6
:10066100120C6B8C0C8D0D052CE52C7002052BE505
:100671002B600302072CE52C14604514606524F9F6
:10068100607C14600302072CE52E6402452D702165
:10069100E51C6402451B7019E51E451D7013F52B01
:1006A100752C01F52DF52E051CE51C7011051B801F
:1006B1007AE4F52BF52C052EE52E7002052D806BC5
:1006C100E52E6403452D7063E51A4519605D752BB0
:1006D10000752C01E4F52DF52E051CE51C704C056B
:1006E1001B8048E52E6403452D7040F52B752C01C8
:1006F100F52DF52E051CE51C7031051B802DE52E11
:100701006402452D7025E5134512701FE51C640236
:10071100451B7017E51E451D7011F52B752C01F554
:100721002DF52E051CE51C7002051BE51B7032E53D
:100731001C24FD601324F97028E4F51BF51C051E2B
:10074100E51E701D051D8019E51E6401451D701112
:10075100F51B751C01F51DF51E0520E52070020530
:100761001FD3E5209409E51F64809480404DE4F592
:100771001FF5200522E52270020521D39409E52108
:10078100648094804035E4F521F5220524E5247048
:10079100020523D39409E52364809480401DE4F588
:1007A10023F5240526E52670020525D39409E525C0
:0C07B100648094804005E4F525F52622C4
:100B6D00E51B7026E51C24FC601824FE601424FD92
:100B7D00601024087014E51E6401451D700CF519F4
:100B8D008003751900751A018005E4F519F51AAE83
:100B9D0023AF247C007D64120C59AA06AB07AE2549
:100BAD00AF267C037DE8120C59EF2BFBEE3AFAAE23
:100BBD0021AF227C007D0A120C59EF2BFFEE3AFE7D
:100BCD00E5202FFBE51F3EFA7D64AF03FE120C6B93
:100BDD00ED4C70117C017D90AF03AE02120C6BEDEC
:100BED004C704F8042AE23AF247C007D64120C59B3
:100BFD00AA06AB07AE25AF267C037DE8120C59EF94
:100C0D002BFBEE3AFAAE21AF227C007D0A120C5975
:100C1D00EF2BFFEE3AFEE5202FFFE51F3EFE7D0494
:100C2D00120C6BED4C7006F51275130122E4F512E2
:030C3D00F513228A
:100D95007FFF7580EF208002E4FF2081027F012024
:100DA50082027F022083027F037580DF2080027F1D
:100DB500042081027F052082027F062083027F07AF
:100DC5007580BF2080027F082081027F0920820272
:100DD5007F0A2083027F0B75807F2080027F0C2095
:0E0DE50081027F0D2082027F0E2083027F0F8D
:010DF30022DD
:080E4F007BFF7A0F79487F8DCB
:100E57008B398A3A893B120F76AB39AA3AA93B12EA
:100E67000C406013053BE53B7002053A14F9120C80
:080E770040FF120F8B80E22204
:060F6100AD32AC317FC887
:0F0F67008C398D3A120F76E53A2430FF020F8B4A
:100F76008FA0C290C291D292E4FF0FBF28FCC2900C
:040F8600C291C292C0
:010F8A002244
:100F8B008FA0D290C291D292E4FF0FBF28FCD290D7
:040F9B00C291C292AB
:010F9F00222F
:100E7F007F1E7E00120F2A7F38120F067F38120F47
:100E8F00067F38120F067F38120F067F08120F06E3
:0F0E9F007F01120F067F06120F067F0C020F064F
:100F06008F35C290C291C2927F017E00120F2AD203
:100F1600928535A07F017E00120F2AC2927F087E3D
:040F260000020F2A8C
:100F2A00D3EF9400EE940040147D787C00ED1D70A0
:0D0F3A00011CED4C70F7EF1F70E61E80E308
:010F47002287
:03000000020FA04C
:0C0FA000787FE4F6D8FD75813B020DF46B
:100C4000BB010689828A83E0225002E722BBFE02B2
:090C5000E32289828A83E49322E5
:100C5900EF8DF0A4A8F0CF8CF0A428CE8DF0A42EAF
:020C6900FE2269
:100C6B00C2D5EC30E709B2D5E4C39DFDE49CFCEEA4
:100C7B0030E715B2D5E4C39FFFE49EFE120CA1C36F
:100C8B00E49DFDE49CFC8003120CA130D507C3E46A
:060C9B009FFFE49EFE2213
:100CA100BC000BBE0029EF8DF084FFADF022E4CC37
:100CB100F875F008EF2FFFEE33FEEC33FCEE9DEC00
:100CC100984005FCEE9DFE0FD5F0E9E4CEFD22ED46
:100CD100F8F5F0EE8420D21CFEADF075F008EF2F90
:100CE100FFED33FD4007985006D5F0F222C398FD81
:050CF1000FD5F0EA221E
:00000001FF
