:100BCD00C0F9A4B0999282F8809089BF6E9DF6FF0E
:100BB600140A000F000F000F000F000F000F000FA8
:060BC600000F000F000FFC
:10080000752400752501E4F590F51EF51FE51F25FB
:10081000E0240AF8E6F52008E6F52124CDF58274F7
:100820000B3520F583E493F4F5A07F037E00120BD3
:10083000980590051FE51F7002051EC39408E51E6C
:10084000940040C9120B39EF3395E0F5228F23E570
:100850002470B3E52524FE6048146071147003020F
:1008600008F91470030209251470030209512405C4
:100870007094D3E5239400E52294004089E5239405
:100880000AE5229400400302080685220A85230B0C
:100890008522088523090525E525702E05240208F3
:1008A00006D3E5239409E52294005003020806E5E7
:1008B00023940EE5229400400302080685220C854D
:1008C000230D0525E52570020524020806D3E5233E
:1008D0009400E52294005003020806E523940AE5FB
:1008E000229400400302080685220E85230F052569
:1008F000E52570020524020806D3E5239409E522C4
:1009000094005003020806E523940EE5229400406B
:10091000030208068522108523110525E5257002AE
:100920000524020806D3E5239400E5229400500331
:10093000020806E523940AE5229400400302080613
:100940008522128523130525E5257002052402085A
:1009500006E523640F45226003020806F5147515A9
:100960000E7F01FE120AC67F037E00120AC6D3E57F
:10097000099409E508648094804011AE08AF097CB1
:10098000007D0A120A048E168F17800085081885CC
:0D09900009190525E5257002052402080659
:100B9800D3EF9400EE940040147D787C00ED1D7036
:0D0BA800011CED4C70F7EF1F70E61E80E39E
:010BB500221D
:100AC600EF25E0240AF8E6FC08E6FDEC7064ED2468
:100AD600F5601E14603214604324037055EF25E060
:100AE600240CF8E6FE08E62509F509EE3508F508B2
:100AF60022EF25E0240CF8E6FE08E6FFC3E5099F91
:100B0600F509E5089EF50822EF25E0240CF8E6FE37
:100B160008E6FFAC08AD0912099D8012EF25E02416
:100B26000CF8E6FC08E6FDAE08AF091209AF8E0820
:030B36008F092202
:100B39007FFF7580EF208002E4FF2081027F012082
:100B490082027F022083027F037580DF2080027F7B
:100B5900042081027F052082027F062083027F070D
:100B69007580BF2080027F082081027F09208202D0
:100B79007F0A2083027F0B75807F2080027F0C20F3
:0E0B890081027F0D2082027F0E2083027F0FEB
:010B9700223B
:03000000020A3AB7
:0C0A3A00787FE4F6D8FD758125020A8162
:10099D00EF8DF0A4A8F0CF8CF0A428CE8DF0A42E6E
:0209AD00FE2228
:1009AF00BC000BBE0029EF8DF084FFADF022E4CC2C
:1009BF00F875F008EF2FFFEE33FEEC33FCEE9DECF5
:1009CF00984005FCEE9DFE0FD5F0E9E4CEFD22ED3B
:1009DF00F8F5F0EE8420D21CFEADF075F008EF2F85
:1009EF00FFED33FD4007985006D5F0F222C398FD76
:0509FF000FD5F0EA2213
:100A0400C2D5EC30E709B2D5E4C39DFDE49CFCEE0D
:100A140030E715B2D5E4C39FFFE49EFE1209AFC3CD
:100A2400E49DFDE49CFC80031209AF30D507C3E4C8
:060A34009FFFE49EFE227C
:100A4600020800E493A3F8E493A34003F68001F2BE
:100A560008DFF48029E493A3F85407240CC8C333B1
:100A6600C4540F4420C8834004F456800146F6DF80
:100A7600E4800B0102040810204080900BB6E47E4F
:100A8600019360BCA3FF543F30E509541FFEE49375
:100A9600A360010ECF54C025E060A840B8E493A33C
:100AA600FAE493A3F8E493A3C8C582C8CAC583CA67
:100AB600F0A3C8C582C8CAC583CADFE9DEE780BE1F
:010BCC000028
:00000001FF
