:0704B6003E003C004F4B002B
:0804AD00021C0063021E0001A5
:100003001203AC7F3F1204747F0E1204747F01123B
:1000130004747F017E001204567F8012047412035D
:100023004DEF3395E0F51C8F1DE51E70F1E51F14B0
:10003300B4080050E990004675F003A4C58325F089
:10004300C5837302005E02008B0200B90200ED0259
:10005300012802016D0201A10201D5C3E51C940030
:1000630040BCE51D940AE51C940050B2851C08852C
:100073001D09120452AD09AC087F8012049E051FAE
:10008300E51F709A051E8096C3E51C9400408FE51A
:100093001D940AE51C94005085851C0A851D0B12CE
:1000A3000452AD0BAC0A7F8112049E051FE51F703D
:1000B30036051E020021C3E51C94005003020021F3
:1000C300E51D940AE51C94004003020021851C0CE5
:1000D300851D0D120452AD0DAC0C7F8212049E05DA
:1000E3001FE51F7002051E020021C3E51C9400508A
:1000F30003020021E51D940AE51C9400400302005D
:1001030021851C0E851D0F120452AD0FAC0E7F838B
:1001130012049E051FE51F7002051E7FE87E031271
:1001230004560200217F011204747F017E00120431
:10013300567F80120474C3E51C940050030200210F
:10014300E51D940AE51C94004003020021851C1060
:10015300851D11120452AD11AC107F8012049E054F
:100163001FE51F7002051E020021C3E51C94005009
:1001730003020021E51D940AE51C940040030200DC
:1001830021851C12851D13120452AD13AC127F81FD
:1001930012049E051FE51F7002051E020021C3E520
:1001A3001C94005003020021E51D940AE51C9400F1
:1001B3004003020021851C14851D15120452AD1540
:1001C300AC147F8212049E051FE51F7002051E02F8
:1001D3000021C3E51C94005003020021E51D940A8D
:1001E300E51C94004003020021851C16851D17128F
:1001F3000452AD17AC167F8312049EAE0AAF0B7C7C
:10020300007D641203F4AA06AB07AE08AF097C03B2
:100213007DE81203F4EF2BFBEE3AFAAE0CAF0D7C44
:10022300007D0A1203F4EF2BFFEE3AFEE50F2FF5E4
:1002330019E50E3EF518AE12AF137D641203F4AA4E
:1002430006AB07AE10AF117C037DE81203F4EF2B6E
:10025300FBEE3AFAAE14AF157C007D0A1203F4EFFD
:100263002BFFEE3AFEE5172FF51BE5163EF51AD3E5
:10027300E519951BE518951A40087BFF7A0479B6B2
:100283008011C3E519951BE518951A501B7BFF7A5E
:100293000479B87F841204067FE87E03120456753E
:1002A3001E00751F05020021051FE51F7002051EB4
:0E02B3007BFF7A0479BA7F84120406020021D0
:0F049E008C208D21120474E5212430FF02048983
:100406008B208A218922120474AB20AA21A92212E8
:1004160003DB60130522E5227002052114F912039D
:08042600DBFF12048980E222D1
:100474008FA0C290C291D292E4FF0FBF28FCC29019
:04048400C291C292CD
:010488002251
:100489008FA0D290C291D292E4FF0FBF28FCD290E4
:04049900C291C292B8
:01049D00223C
:1003AC007F1E7E001204567F3812042E7F381204F2
:1003BC002E7F3812042E7F3812042E7F0812042E42
:0F03CC007F0112042E7F0612042E7F0C02042ED6
:10042E008F20C290C291C2927F017E00120456D2DA
:10043E00928520A07F017E00120456C2927F087E14
:04044E00000204564E
:040452007FF47E01B4
:10045600D3EF9400EE940040147D787C00ED1D707F
:0D046600011CED4C70F7EF1F70E61E80E3E7
:010473002266
:10034D007FFF7580EF208002E4FF2081027F012076
:10035D0082027F022083027F037580DF2080027F6F
:10036D00042081027F052082027F062083027F0701
:10037D007580BF2080027F082081027F09208202C4
:10038D007F0A2083027F0B75807F2080027F0C20E7
:0E039D0081027F0D2082027F0E2083027F0FDF
:0103AB00222F
:030000000202C138
:0C02C100787FE4F6D8FD75812202030866
:1003DB00BB010689828A83E0225002E722BBFE0220
:0903EB00E32289828A83E4932253
:1003F400EF8DF0A4A8F0CF8CF0A428CE8DF0A42E1D
:02040400FE22D6
:1002CD00020003E493A3F8E493A34003F68001F244
:1002DD0008DFF48029E493A3F85407240CC8C33332
:1002ED00C4540F4420C8834004F456800146F6DF01
:1002FD00E4800B01020408102040809004ADE47EE0
:10030D00019360BCA3FF543F30E509541FFEE493F5
:10031D00A360010ECF54C025E060A840B8E493A3BC
:10032D00FAE493A3F8E493A3C8C582C8CAC583CAE7
:10033D00F0A3C8C582C8CAC583CADFE9DEE780BE9F
:0104B5000046
:00000001FF
