:10085000C0F9A4B0999282F8809089BFF6FF000297
:10086000000A0003000C0005000D000D000D000D36
:02087000000D79
:10080000E4F590F508F509E50925E0FFE50833FE74
:10081000745E2FF58274083EF583E493F50A740143
:1008200093F50B2450F5827408350AF583E493F4AC
:10083000F5A07F057E0012087205900509E5097094
:10084000020508C39408E5086480948040B980B02C
:10087200D3EF9400EE940040147D787C00ED1D705F
:0D088200011CED4C70F7EF1F70E61E80E3C7
:01088F002246
:0300000002089063
:0C089000787FE4F6D8FD75810B020800AB
:00000001FF
